:020000040800F2
:1000000000020020A19906087370060875700608A2
:1000100077700608797006087B70060800000000FB
:100020000000000000000000000000007D700608D5
:100030007F7006080000000017240608ABF20508D0
:100040007BA206087FA2060883A2060887A20608EC
:100050008BA206088FA2060893A2060897A206089C
:100060009BA206089FA20608A3A20608A7A206084C
:10007000ABA20608AFA20608B3A2060899160408A8
:10008000BBA20608BFA20608C3A20608C7A20608AC
:10009000CBA20608CFA20608D3A20608D7A206085C
:1000A000DBA20608DFA20608E3A20608E7A206080C
:1000B00051330508EFA20608F3A20608F7A20608C6
:1000C000FBA20608FFA2060803A3060807A306086A
:1000D0000BA306080FA3060813A3060817A3060818
:1000E0001BA306081FA3060823A3060827A30608C8
:1000F0002BA306082FA3060833A3060837A3060878
:100100003BA306089570060843A3060847A3060804
:100110004BA306084FA3060853A3060857A30608D7
:100120005BA3060823BC040863A3060867A30608AC
:100130006BA306086FA3060873A3060877A3060837
:100140007BA306087FA3060883A30608857006081C
:100150008BA306088FA3060893A3060897A3060897
:100160009BA306089FA30608A3A30608A7A3060847
:10017000ABA306088D700608B3A30608B7A306084C
:10018000BBA30608485454502F312E302032303053
:10019000204F4B0D0A5365727665723A20754950AF
:1001A0002F302E392028687474703A2F2F64756EA2
:1001B0006B656C732E636F6D2F6164616D2F756954
:1001C000702F290D0A436F6E74656E742D747970EB
:1001D000653A20696D6167652F6769660D0A0D0ACA
:1001E0004749463839611002FD0077003121FE1A77
:1001F000536F6674776172653A204D6963726F73ED
:100200006F6674204F66666963650021F90401001A
:100210000000002C000001000F02FC00870000001D
:100220000000000000330000660000990000CC00D0
:1002300000FF00330000333300336600339900338E
:10024000CC0033FF006600006633006666006699E6
:100250000066CC0066FF00990000993300996600A3
:1002600099990099CC0099FF00CC0000CC3300CCC8
:100270006600CC9900CCCC00CCFF00FF0000FF331F
:1002800000FF6600FF9900FFCC00FFFF3300003342
:1002900000333300663300993300CC3300FF33332F
:1002A000003333333333663333993333CC3333FF53
:1002B0003366003366333366663366993366CC3310
:1002C00066FF33990033993333996633999933999B
:1002D000CC3399FF33CC0033CC3333CC6633CC9959
:1002E00033CCCC33CCFF33FF0033FF3333FF6633E3
:1002F000FF9933FFCC33FFFF6600006600336600D2
:10030000666600996600CC6600FF6633006633338C
:100310006633666633996633CC6633FF666600667D
:1003200066336666666666996666CC6666FF66993B
:10033000006699336699666699996699CC6699FFC5
:1003400066CC0066CC3366CC6666CC9966CCCC664F
:10035000CCFF66FF0066FF3366FF6666FF9966FFA7
:10036000CC66FFFF990000990033990066990099C7
:100370009900CC9900FF99330099333399336699EA
:1003800033999933CC9933FF99660099663399660E
:10039000669966999966CC9966FF999900999933FF
:1003A0009999669999999999CC9999FF99CC0099BD
:1003B000CC3399CC6699CC9999CCCC99CCFF99FF48
:1003C0000099FF3399FF6699FF9999FFCC99FFFF38
:1003D000CC0000CC0033CC0066CC0099CC00CCCC57
:1003E00000FFCC3300CC3333CC3366CC3399CC33E1
:1003F000CCCC33FFCC6600CC6633CC6666CC669939
:10040000CC66CCCC66FFCC9900CC9933CC9966CC29
:100410009999CC99CCCC99FFCCCC00CCCC33CCCC1A
:1004200066CCCC99CCCCCCCCCCFFCCFF00CCFF3371
:10043000CCFF66CCFF99CCFFCCCCFFFFFF0000FFC8
:100440000033FF0066FF0099FF00CCFF00FFFF3381
:1004500000FF3333FF3366FF3399FF33CCFF33FFA5
:10046000FF6600FF6633FF6666FF6699FF66CCFF96
:1004700066FFFF9900FF9933FF9966FF9999FF99ED
:10048000CCFF99FFFFCC00FFCC33FFCC66FFCC99AB
:10049000FFCCCCFFCCFFFFFF00FFFF33FFFF66FF69
:1004A000FF99FFFFCCFFFFFF0102030102030102DE
:1004B000030102030102030102030102030102031B
:1004C000010203010203010203010203010203010D
:1004D00002030102030102030102030102030102FC
:1004E00003010203010203010203010203010203EB
:1004F00001020301020301020301020301020301DD
:1005000002030102030102030102030102030102CB
:100510000301020301020301020301020308FF00B9
:10052000AFB06021089BC156ADAE0842C8B0A1C3B0
:100530008782223E9C48B1E14284171D66DC3871F7
:10054000A147891E5B451C49B264499124AF288CA0
:1005500058CA99CB973063CA9C49B3A6CD9B3873D0
:10056000EADCC9B3A7CF9F4083BA44F692E8D0A291
:10057000488F2A756694E9CFA650933A5D1A95AADA
:10058000D4AA31B16ABDCAD5AAD7A9CE06B24088CD
:10059000AD15369505CD6224AB56A3C8B76D1D9633
:1005A0006518B2EEDB8C0CE7DADD7BB72F5F41A775
:1005B0003E2A5C49D2AF449557DE927236CA6963CF
:1005C000A28F193B9E0C99B2E4CA982F6B8EDCF86F
:1005D000D866679E39831E4DD4B369A7A73D971E81
:1005E000AD9AB5EBD4A85D570E1D9BB66DC9B73B50
:1005F000E37ECD1BB6EFDEA3750B0F4E3C77F1DD2E
:10060000C38D2B477E3C39F3E5CEA3379FBEFCB7A5
:1006100075E0D7B3BBEECC22C095830855B2FF7D01
:1006200038176245F36BCF5BA40B926E47F7184DFA
:10063000A234497FBE7DB4114D09DDCF3F67539889
:10064000FF4905E04C012E35A04C5B7D9520580BF1
:1006500036D815830F3AA860842F79E69285A35D7A
:10066000582185137608E1571886B8A18624666854
:10067000A28825A27862580461E3CA5C0AA985CDE4
:100680004565D5B85E48E9E9E5574336BAF7117DC7
:10069000F28DB4E35F43DE25086142D635D24A22AB
:1006A0003D9359632E8916E564535656A564574207
:1006B000F959962F89F6A4655E7EF6256D5F962919
:1006C000E69961A649DD676432371B9B708AD6E6DE
:1006D000706FCAF9DC9DD241B7669E78EEE9A79E9D
:1006E00080F619A8700399A55762E5A98757458B2D
:1006F00052F4239090467AD25E924684647B90B600
:10070000D2527F9C76EAE9A7A0862A5481601D9880
:100710001581A82298EAA9AAB6CAEAABA6C6FF2AFA
:10072000E0AC06D25AAAADA47A27E3483DCA18D74E
:100730005D89AE65D7AF4AFE582491C6A684E9B15B
:10074000981E19A49149B2B2586644516B59B59A92
:10075000611B99B64E71BB5A66AD6D6B59B8B2B993
:10076000B91BB9A7BD892E69E71EB7EEBB93C1A619
:10077000DB69F3BA6BEF6DF462B71D6FF5E2FBA7AF
:10078000A000F329F0BF03CBCBEFC10627BC6F6AF3
:100790002CF06150590B053B9E7AEC355A71611B68
:1007A00081A4F1A395767C319097726C5229A48A2A
:1007B0006AF253ABCA5AEBCAB7B24CEACB29E31A76
:1007C000B3872A7F683356183695F38860ED5CA2AC
:1007D000CE52F96C22D04B096D74D048179D74CF5E
:1007E0004B131580A118F56A63A234DE0817D5C72C
:1007F000668DEC901B3B3B98D75C2B1932B4ED0512
:1008000082E5D95A6AB9D8942EAD8D7697546E295F
:10081000B79A66D28D269878D79DF7DD7AF7FFCD07
:10082000F7DF76061E6F9F75126CF8A087079C781D
:10083000BF8A233EE858C1464EF17A8E4A641EA50F
:100840009877ACF9D749423A36C78109E2F6C9A48C
:10085000976EFAE9A8EF54F27E12B6DC53EBB07350
:1008600078B3EC0BB220B5AFBD5E6D755EC26AEDBC
:10087000FBD698DB67A9D7C423EBECA4F349144853
:10088000298DB98DEDF3DD468FED51D0572FBD5336
:10089000D33A93FDF6D877EFB7DDE00F2E78E1E499
:1008A000F3B65ABAE6A70FDBF98437DEAE760A173D
:1008B0000C70BEF12F6E7FA0BF310EBFBEA61554C7
:1008C000DEC3BC9BDC7992041FB8882430C2DB589D
:1008D000F23A27B2481106311DFBDCA40091BA0A96
:1008E0005A1028307355CD32F8AAD879C883B3FB93
:1008F00020D20201041D8C611543E319CE68C74262
:1009000010F14C45307CA10CD3A2BBA9C98558136A
:10091000FB9D0E81B743947CED87C7631692FF8ED3
:100920001508B5C1AD6D47D45E12DD6644B6BD0D88
:10093000894E6462DCA434B7295AD14A55C42215C1
:10094000C3F7BDBD7111705EC4DB9C88533E3A99FC
:10095000CB8CCEE942102EE0810B044107ABA09F67
:10096000FBE447C77BCD7171E4E19DC40428A4F486
:10097000302A6CCC6AE00225F543FC688E24AC304A
:10098000C91E4677C1463AF29190241D075DA28A9E
:10099000355EE092983C44331EB4C199B98E839B76
:1009A00074992727F91261D950726E21D6B278C88E
:1009B000CA1E660E88402C969198541753782410BE
:1009C0007AC81652A6773DA2640F5BBFF45EF4822C
:1009D000E9CBEB115389D03BA6B8AC05AE710D2E17
:1009E0005FDFD20CB9A2894632B64B5DB1A166B9C0
:1009F000EA854D7F79F37DE0D41FC216061A44B014
:100A0000F1021D38671B11C1B83A3AAE71ABE8422A
:100A1000192C50060A56C78EED7C0DC4C872FFCA49
:100A200000524C48A630E03FE982C05A264B810C68
:100A30001CA4492008C1FA48EA3E7A606424277A57
:100A4000C1D5695066171565463FE949A191D24362
:100A50003AB8643A458A4944384F8528FD594A5383
:100A6000A8D2B605E2021880290676D085A6ADF494
:100A70006847C911EE02C8115F2564957DE95D2BB9
:100A800087AAB525116F30F881D62C3166242B74D6
:100A90006F2927852258A2AA44A8BE448A52751BF2
:100AA00056ABCAD5AD36256D70D3E215C1D8C5B2E7
:100AB00092F5AC5F4CAB330D86CD66EA8D14654084
:100AC000A75CD399CE3692C19D77441C5C617ACEE7
:100AD000980AA1A6EFA4238FF428C08B0555A08AFD
:100AE000F291619255D4061EEF488869E8218D7510
:100AF000052B4894A298CDAC663B7588CEAE4215C6
:100B0000CE0865A79AA18A906272A498BC2419A8FD
:100B10006AAA05E1042B3001C40EF89ADA4BFF6291
:100B2000A0A622CCAD3374DACF19E5F12DB474A5AB
:100B30007089FA97A31A37B80444DE47A0400A2800
:100B40003D23AA4E4A4A7495F25CE942CF19D19DE1
:100B50005E76A7B25DEB19A5BBC6DC652FC76B3D02
:100B6000EE15D3AC6A1D539CC4F7CCDAB0EB3AD186
:100B7000BC8E1A2DF0C632746115F5E2937648B139
:100B800046BA9ED3BFE95C2D3E13F74D7F05628DBB
:100B9000316D6382F92A04B3BD737FC7584B8DC092
:100BA000C347841670A07EE488209364CB043AB6D1
:100BB00090910D59D71C6A855C6EF6C4280ED547F6
:100BC00039BA512F0461072F0E828C754006D082EE
:100BD000B02AAB302D6A778C4901EB76411EE5D9FE
:100BE0004B6B1B53DBDA76075405B20C3514B59DFD
:100BF000D6A8A74F3E520F333CDC2A3F0A96C71DAA
:100C000071F290DB0A2844F46C5ABDAA98B33AE614
:100C1000AE9639CC644EB399A3B8C436B359FFCD60
:100C20004DCCE2DBC44AE739DB19ACE80DE318F53B
:100C3000A6461DBC3108F40D7410ECC9DE321267F3
:100C4000AF009EABA205ACA7C205F6D06B6CA3A407
:100C5000FBAACE0BB0D39A78150E4A087B1EBD00B6
:100C60001547851D2020874AC8108718480A9D4FC0
:100C7000652F9BE256BB5AB38788B19F614CEB3519
:100C800006E1109DEA026A53BBEB1E5F76C558D998
:100C9000A4B005E405DAD6F6D8335505863AB9D1BD
:100CA00026F7133E514E0C71153BED6A930DCB2088
:100CB000662AC7FA52D93C20D325D5C5EE4BC23D92
:100CC0005D727F17BAE8966E92A3473D08F1F2BABB
:100CD000E33D26BC8389C46486177ACBD4A55BA583
:100CE000E94CBD8DF1DFEC920E5CFDAC8332101C43
:100CF000D00877A383DBFBCD7999B38D75952BC491
:100D0000FF7B81BB8E538E18D7DE2A00B18AC5D0F7
:100D1000CF9C0B0E39A5155CD37C3E3AC212FFB1B5
:100D20002145A2CC583F86BAA706044C40654973BA
:100D3000A582CC6B6831B58837BC07E6B2FAD540DE
:100D40000F3A7F567C8C58FF79C6328E318C2FB08B
:100D5000031432FB555D20A9D4E53A753280D033B7
:100D60009B3C862A5471082FE86007B3DD8117E2A7
:100D700058A155ECA0C8C646BBDA2FA003172AED30
:100D8000ED4EE12D0E7725E5565259A856B67296CE
:100D90006169C8E085A4B2B98C339AD74CF8C11BFD
:100DA000FECC8857F3E1A5DA94C57335CE902FB306
:100DB00096301479276E318C5FE2529EFDED0C1750
:100DC00017FCE0820EFDA0038E79DC1CC202134FDB
:100DD00074A2D739CDF57A8614AB080422FC5C697D
:100DE000055B80EC9ED1C182272D72059F93EC9903
:100DF0006E4E0D7FA547871E36D4039D79DE2B9559
:100E00006DA4F65D735000C4CF854EFDEA836A156C
:100E100065A8B5F663EC46B906C110FBA9E4FF6905
:100E20008F4DFE4BAE42B436D92429BA3E5B239790
:100E30001F0366537FFBCB4F644C62C00BAB026158
:100E4000D57A84A3687F3A6B54666D02B8657B4798
:100E50003C2C1023C99540955505AA400ACF005A4D
:100E6000E2066E10586EDF5581E06681D8858114E8
:100E700078811C9881E08666E15655D3C55DF2C63F
:100E80006EE0E581DE455E2A98822CA882D913198E
:100E90002F587AE9752EB367707F067A0827686E37
:100EA000B41866D41A3E881A393671A927718AE6B1
:100EB000016DB75FF11457BB774E97E47BAC071A0F
:100EC0008730727CE58453C85765107CCA51437BD8
:100ED00074108F056A30F7720504737FD1610BA11E
:100EE0007C1E418684745C887180931224815062D8
:100EF000D3677D72388740A14648576B32E6464B30
:100F0000E75F400081378115A410523C3675BD76ED
:100F100001B8E6197EE812A4150864607FF4FF8723
:100F20006C66E312C5666CA9B57646365364D75233
:100F3000210421FBD716FD27125C465401B87CC35F
:100F40005512D886732A411009D83995F504A4B0F2
:100F500036E4068BB2F881B4885D20788B63168204
:100F6000B3A878895778BDE878C02879BD58794FFB
:100F7000F478C2586778766761A58C5552839FF7DD
:100F800067A21768FE25606A957B43A87A8A964E09
:100F900041B0188010040B470A88807AB5378E93C9
:100FA000366964C75F95B68454C87B25773FC8C14E
:100FB000231436583FA5613B827C93332C8BB54379
:100FC00069F84090756A0F25086F68597438900465
:100FD000191464A07408596BDD9768B80614E67498
:100FE0006C85487E87207E64B04980506C68F788A5
:100FF000E5B703A0D50C93A89119E988F8072B1839
:1010000015139DE85B55338FC2E572D4468AC465DB
:101010008A05885407188AB3B407AE383A0FFF0818
:101020006EE336813BA99312E893D8C5933F1981AB
:10103000B60894E4366EB088944699941DC85D1A3B
:10104000085DF01695ECF66DC0746FC3649555D9C4
:1010500082E7153DF91619ADD71A036783CFE86704
:10106000D108681D6001677908E8E395ECD58D44E7
:1010700018717049711E60018DE80139E00C6A54E5
:101080006971D9464D988E6C0458AB5085BD279830
:1010900023777B27F71C6F118F29E92CEF7177F6E7
:1010A0007861616873ED215468E84046652921C67E
:1010B0008691921095650580908805199AA229134A
:1010C0003996747E768708397E7465010D593332FE
:1010D000E105834875B219916FA491B68949E7A7D4
:1010E0000A6707928EE87E301508A144344C0377D6
:1010F00044B17F75F164E2B1287617739189770363
:10110000683CC3738A323910CFE21195D573CD256F
:1011100081CF10943AB99D47E99D4C599494FF545E
:101120008B39299EE5198BE4D978BFB89EBCD89E2F
:10113000BEC87865F65552418C5B559F6E568C97AC
:10114000878CDA6370FC8983D1B89A75659892B1FF
:101150004976730CAB208ED8B87A6F498E0C5A8EB4
:101160009526605DC07BE338982247067294698DAE
:10117000C9168CF9478F5958A0E69C3BA27CA7B0B2
:101180005893D58F02419D0E055956E099A3D9A2D7
:101190002EEA12AB7090B39690DCD75FD9884E3AA6
:1011A000009A3AB10AB0799B3EFAA3B585642E3114
:1011B0007F40BA7618D076A2E55A0F4223C30223A5
:1011C000968335CBE9282EE94A1A239D3877800388
:1011D000216D085559817093E7F912D5306E602A58
:1011E000A62E11A64069A64489A6DB59A6644A9496
:1011F0006BEAA61318A71DB8811EE8A6E3A681789E
:101200003AA7553182E7968BD77582E0653DED961A
:101210008283EA82C2044CFD7983D0988339FF78B7
:10122000968E7A01427097BFA14DAB71600B2A84F4
:10123000979AA97BE9976D347A062A85140AAAE75A
:10124000B48D79F51C7881175C1823528A771DEAD2
:101250009862781705D50ACAA77CF151A247B586CE
:1012600097B269AD70802BFA992FFAABA1E9624869
:101270002763309687DCE75F84885B3CA10A5D20AA
:1012800088E33775BC467E11699BB7F5121FD99B61
:10129000F5E79B6BE774AD13436311175363297F25
:1012A000C443E8C19CCF49A5D1199326AA8A4122FB
:1012B000107A6059B018A7DE29AFDC1994F3AA9D03
:1012C000F5FA80F76AAFE63981BB889EE6F9AF028E
:1012D0005B8B22188CEE69B0EF99B08E479FF7C9EF
:1012E000B053129663C9A8A107A0E884966E444142
:1012F0007A43A0E1788D37BAA91137691FDBA03096
:101300007584CE100842508512EAA0EA388535E58A
:1013100068730439130131AA2AA51EC34719FF6A4D
:10132000354402A237C7393099993B2708BCEA995E
:101330003A0AAC441B74AA7090C54AA34B67A30930
:101340007A017D9813AB0004D20AA4548B6C391A2D
:101350004AA6F5A321796C23A95124E9124FE3642D
:10136000E11111FF4377D2997340A5B3532A36EAAE
:101370006AA5A9985449720550D0A5AFE89DCE80C2
:10138000A661BA9DD50081797BB77C2B6E7BCBA6FD
:10139000827BB7633AB8785BB8766A944299AF3D7E
:1013A00009A746F95D77FAB8921B13E516B96E9A4C
:1013B0006E2D58A8F5E66E53753DAD9195C394A872
:1013C000115B966859BA146B71DAE41979C9B1984E
:1013D000EAB17299A993D69731857B81B960B22B16
:1013E000AA5418723AF00C19E73804313187921870
:1013F000C427B339A7733319594CE5AACD293C87C3
:10140000552CEB2A10D0AB7321636A9A5912ACA009
:10141000127AA007BE5AB4DC2B74A549ACA6FF49CA
:10142000A3164052C82A9B88807E313106B1B9BECE
:10143000CF5A5BD3CA9B2349145EB0B5F467896960
:10144000C774B8767548F1ADA724AE3ED5169C4357
:10145000806F3BC0C5B3B66173A5D08BA509BCC076
:1014600004718A62813123516256D080DDC9AF7622
:10147000ABAFE236AF176CC1AAA0C11CECC1E72923
:10148000A7199CAF1DDCAFE4E9AF43496E7E38B0CD
:10149000072B158EA79E56D5C231DCB952E5B06038
:1014A000B69F9F279612DBA8154BB18E2AA05864D1
:1014B000A98FDAB40A1AB298EAA0477C0165F082D3
:1014C00071A5B2138ABB5588088749286951B6901F
:1014D0006531B56A391AB124A6D68F5D98B66EE12A
:1014E00011A10332B8AAC0C74BBDD13BBD6B58BDDB
:1014F00025B10770D8BD700C7431FA67DBA7904C2A
:10150000DBB15477B53171B4EDFBBE55FB883115B5
:10151000531C09136647BF3E4ABFF7C73A2FFF1156
:10152000B62A87186CD1235C86435786B63CFB9C51
:10153000A808590AFC4386E1B626EA1DC8250825F5
:101540005605753BA67A0BB8A66CB8887BB8A85C24
:10155000CA15ACA6A9FCCA83FBA6AE6C946DFAA60C
:10156000B6BCB8B65CCBBAACA7BC5CA774CAA74D76
:101570006981DAF5A75A694CA2ABA8A4FBC33E8CDB
:101580004E920A84085A8437DABAAFEBBA138770DE
:101590003A6052AED105277BBBB90BC522B7C4EE6A
:1015A000C81D298911021131AAF4A1EFF16197A98F
:1015B000C57631A21B51505C2CBD019C31648C1F3F
:1015C0000F74A26CBC246F5C136F0A13FD1CC70060
:1015D0007D323C1ABEE06BAC7B389B7D7C49ADE92B
:1015E0001281305BEC4B88530B91F4B70381D071BF
:1015F0002E3C5B884C7EF66BA44D97A42DE414FC26
:101600004B77DE51C53E65C9C373D27A67A5C0F377
:1016100058CE67540A71800180A24D95BD14FFEC2D
:10162000B7A57CD323BCB71BACD3238CC13E5DC212
:101630003FBDC1416DD31FCCC1F81AC2E079D42C93
:101640000CB0054B9EB0D8A775AAB0EC29D5326C6A
:101650008C358CC3C79CCC3D6CBA3DEC7D3C185A94
:10166000070A71164BC4D00CB2E368C415E771F1D8
:1016700052BB5298B29CFAD63C6036D504709CF1AD
:10168000BB1A91A56C210DC427AB076CAB04A4B6A3
:101690002253C97EAD2C22968ADD01B711E1C6D254
:1016A00017D08CAD59A599B4756C6B78DCB48800F3
:1016B00013B1A66812FD88444AB56440130DFDC7F6
:1016C000196D645D3B4A331100E60C2328FA6C3A2D
:1016D000CBD205C8582F99AEA7D88682D1DACE02D0
:1016E000D3D4494BA04CD30E58C27DDBDBA68CD3A0
:1016F000BE0DDCBF4DB8C22DDC6CCACAC4EDB7C785
:101700004DB8A8DCDCCCADDC891BDDB74CCB936BD2
:10171000CB903BA7966BCBE17994BD5C5DBCFF445D
:101720006FD7E3128020BA3A9CCCA6CBD53F3C972A
:10173000E7071A61ADA9D37C4E64204F3A60D6D238
:101740005C8E02EA8381D9CDFA4D98FA4DB22647D4
:101750004EA671801A01BD9DD8113079C5F2AC3901
:10176000E64AA2CA72D25FBC507E6DD8313D449D1C
:10177000B9D894BBCBD2DDA6FE3C13FF0C941BDE84
:10178000D82DFABD31869AB536BE370AD122D5B5E5
:1017900043F6D0087D498366428D08AD205953C376
:1017A000D6369B4DADD86A8933C55A2CA42B64110B
:1017B000113379DAB833DB486505F89CC0DD91A5B3
:1017C0000DCCDAAFDDB626CA505E1C4B0F0EB44905
:1017D000EEC97527085E964B0E48D418DCDBBC0DAD
:1017E000B85FAEB7614ED45E5EDCC9CDD3170CD402
:1017F00019ACE6200CD46CCEB8FB9AE615ACC22727
:101800005CE7019B9E7E4AB0304CD5349CB05A4276
:1018100014AAD09FE5BDC3635DE83E6CB1A3FF870A
:101820005DF39D8D638DC78376A0F1E4A068EDA084
:10183000DEB87116BD49BAF7C44EBCDF22477686C2
:10184000A65EA3E0E31891A5AA5AB61FB3C662919B
:10185000EA621100AC4EEA9B491166D8B3A888CF62
:10186000AAAEEAD23BE54B3210AD5E18151E874199
:10187000D1E1201EEC3581B44A5BA3938DC7AAF554
:10188000128189E2136D3607E60CCBFEC76007763E
:101890005E705FCE10857F9CE3BD1989FB21EA094C
:1018A00041EA8F5CD23E0459312D165710D3317D59
:1018B0000055BEEE58466AD876A2E89EEAB41EEFFE
:1018C000994CC910AC12F1CE3980A7070DC8D3C10D
:1018D0007DE6C3FDEF021FF0046FE6038FDCBEBDA3
:1018E000DCAAFCDCB2DCA6B3CCF0889BCBD49DE1B7
:1018F000132FF1D2BDA718DFCB4E893DCEA8A86427
:1019000049E8CADCD5435CBA64D70CE158C4D0ECD2
:101910008D8C11DFDA1369EE9DC45418DF08FFE6E1
:10192000CD344F8552EC3EBE21E0E47CBC059EC523
:10193000985CEEAB9EE4B5AEEBE68E6A1613D8F17A
:101940004CEB2B10F4BA5EEEF15EEEC8BB73F0CE3A
:10195000EA48D299AF2813169FF5180EEC5A3FF1BA
:101960003861F1C28E62C27A74236E6B07CDE28356
:10197000D8D92F11E32D2E9B2A2F894E97B5ED5BD9
:10198000A4D85A891AADEDDA3ADA251915A61D1F21
:10199000592A653BB554F81EF4318D005880EF5735
:1019A000800558D002548EEE68CB17CE9965582A20
:1019B000F45680002D708008300344FFF4421FBDB0
:1019C000412418551ED3C723B7DAFB5C625ECA6197
:1019D0009AFA849BFA5FCEFAC0EDE6A7CFAF68CE45
:1019E000DBB4EFFA67FEE67D6BB7B3DFE6BC5FD42E
:1019F000484DC2710ED44B3DFCECA98B538DB068A1
:101A0000E68C83FE9F226FE822BF834AC4C764ED41
:101A1000A9DA13DF64407B683DE922EBD6DCFFDF07
:101A2000D6A27A853288693A2F12AE3ECE1583EA65
:101A3000DD31E12C3003839008E73E03AE300858D7
:101A4000B010B49EAB58FC31496FEB333003876F55
:101A5000F9FB9FEA0011804500822C0CB2B8724558
:101A6000D042860DAF1824184021431656AC902260
:101A7000E54CE3468DCF367AECF85164488E244B22
:101A80009E449972A44A962D5DBE841953E64C9AE1
:101A9000354F1E0AB22367101D3B75EABC10E442A5
:101AA00087A145891E2D7AC168D1431B57E920AA19
:101AB000546AD20B4054395B85C8CB8EA95DBD7E7C
:101AC000051B56EC540C5FCB92D5E1AC99CD8D1231
:101AD0005BB55A8810A1A0B7D85AD9859B776142C7
:101AE00088030D0ABA326346222C57026071E56AF8
:101AF000462B44ADF8FEA51B59EF5BCA921BEE05C1
:101B0000FC70A0952BADBC601944AB85801683B0EA
:101B1000CC6091596044830901BFB6ACDA6FFF6AAB
:101B2000BA57A04001A44795AA6ACE3C5653F5DBAC
:101B3000B7B3DEC28D13475E1CF971E5CD8703672D
:101B4000FE5C7A74EACBAD3BD788FDFAC6E65791C6
:101B500067F7DE3B3B77F226410EEFE8FDFC33559D
:101B6000AC0EB9874FEA7C7AFABE33A2B76FFEFE9D
:101B70007A64E68F39F382279ECAE8A9270B823858
:101B80003041043BB08041071B1C0A42A43CC841C1
:101B9000ADA788E2890C0B3CB880C30CBB40A4A75E
:101BA0000E8BE290A812473491C41139548A43171E
:101BB0002F28CBC311638471461B39A431C711CBC5
:101BC000C8681467FAFBEF3F1F837446C8228F3C36
:101BD00046A0B7324B4821CAECC2EB14B8F63A68BB
:101BE00020815C6B018BCF5A68C18B44BCA06BCA4F
:101BF000265D938C3233CFBCEC32CD5C6B25912BC0
:101C0000124964860068F862102EC1D46CB6316146
:101C10006B48CC2AC97CC80A3D303A69BD95FF0C97
:101C200035EF50451365143F441D5D49A6F9D8A210
:101C3000B4A6AC10C134D34C57A9B4D355C8103096
:101C400008017FDA49C2A5948A8AAA5483D80D2A4A
:101C5000A95651659543C8E8E290592D4055AA54BC
:101C6000A7DA752C5F7F95EAAC1A9512B6581DBCA1
:101C7000EBEFA4644B5AB63F89221304A189EABA58
:101C80006B49BD32934BCF2BB060E1342F6618E423
:101C90000A30C5C4D649CBF2B236B634F922B3CD38
:101CA000CFE264A1342C68682111C0FA9248217DEA
:101CB000619B8CDDD65E3368053D0079463EE27857
:101CC0003BB837E0144678E1841F7638E286271661
:101CD0008EE18A0F662EB8EB34EEEE378E3FF68833
:101CE000BD9087139964DF341EB96495516639A499
:101CF00090D523593D94EF7386145630F522D39C2A
:101D0000C9F8129155D6DB2FE88D68267A68A3357D
:101D10002A5AA3639E12D040049F4EF0C1A3FF2411
:101D2000A47A6AA210C9E1C42000393256114F9C2E
:101D300050C517537CB1EC15CFC611ED1ACDD63175
:101D40006DB76B0C22A3FE7C9CFB4767E8BEDB6E85
:101D5000BC475172AF2617AA16AF74D76577CC6D02
:101D60009BC4020B860C9F284C74CF3433CDC539ED
:101D70009B76C9C4BFD5D25BBF0FDAB371C9EFE59B
:101D80007C2283042554A4915D86B4D14727551D38
:101D900025D63B853DF6D89FD1B476DB39957D2697
:101DA000A6492535A8A59002FEF7A4449C0A7755BC
:101DB000C8003679E59737AB790C7650652D4A0522
:101DC000AA2D5A32A1AC76B2733193EBB57DBFF731
:101DD0001EF0ED1F4F774AC2E56A57CB190AF3226E
:101DE000CBCD670B7F5A86F2F2D7B58404C20D9033
:101DF000DDA0DBAE3AE7FC9F4EFF04F8BF01069082
:101E0000800734600285339E05E2473CDF81E0793C
:101E10001E28C19588671537C3542232D533FF9EDB
:101E200079890CAC809979D493AC6790D0841D39B2
:101E3000A16F96B534A7394D41516B50D522643509
:101E4000E16128235D104AF04EB44315A5C88728E8
:101E5000525BDBD636442116F14617E051DEEA46E6
:101E600024201D6948794B520016379730090E4DD2
:101E7000D78296DF0AD7B9343DCE718E8BDCE71658
:101E8000D72469D92F218561529EFEC62731A671BC
:101E9000229A5901E9F6B3A8D4D5717574BC63EBE5
:101EA000F458478EBCCE8FAECB1D5B2E653BDB91CD
:101EB000011186C45D205F72BC9D88EA40BE434A22
:101EC000AE22A92A5D55F2023A38840E72B549AAAB
:101ED000F0EA2BBD629EB0C8D23C6205CB94C44AE6
:101EE0008BB250D2AC8D380B21534ACD44B087977A
:101EF000F16D8F1598011F986AA93D2F62918D8B06
:101F0000F39EFDE2F710624A8B4F9E131FFDC2B78E
:101F100010819480050223182918A6B0E44CFF6CA8
:101F20009AC9819835B1494D895D3362D8BC18FF93
:101F3000B8C9328F8DCC62272B27C6D4294E94C5C1
:101F4000EC65EF44673C57064FF6A4276487C894B6
:101F5000207476C89E21E24B89E059206065B7FC69
:101F600014B4601D49DA419186D0560E6D15013AC0
:101F7000900B1734C318D2D04133C4288680183C44
:101F80001DF6506D64539BD9D816C423D2E8453A48
:101F90002AC3DEF4B6D2BAB5F46E044126E00217C5
:101FA000B9CAF0525D9F838BBD784953C8B5F173B0
:101FB0008C03AA307D2AB9BF29A44A15B908CC528E
:101FC00066B2A5361552A763AAE99E6A473A2AD295
:101FD000AA561D24210B7948AE26F2AA1A89151992
:101FE00008E4939D40F254C293242539094AE6B58A
:101FF000D5ADBE12258CBC5012E9CDA420E673CC21
:10200000426659BE5DF6D5A67FF5ABE4F0EA90F8DE
:102010001D73996A4A6616E3E717FC05229AFFDCEE
:10202000940E35C319D9ED48769B0A2CA06511088A
:1020300040CE16B0B308642004B5F340E030F01091
:102040001AB41D07559B332FE5EC10AB0BE1C9F417
:1020500083C256AE22106395E80B89628632F01671
:102060001241284350AA66AA8B7214883CFC217244
:102070008F2BB611B5E86C467C9B1076A088325049
:10208000D70C3B80EE0510412452AC426E503CD23E
:1020900012911491CE74117B57E4ABF8D49B45EDAB
:1020A00025D35AEF45D350E53BDFF97ACE30559230
:1020B00063EBA09A47AAEE91BFFFC56380FD1B9317
:1020C000D72932AB5AC59421139C2932205291AAA8
:1020D0000891A842352A9F742008B4C04686358CE2
:1020E0000D5A28C20C96546B88533562107BF2ADA2
:1020F000C31A4B10CC400B0C6F38C3C14571B102F1
:10210000D10C5564922B88E0C8B2725C12D628B606
:102110008AD90B2C6085ECD7F462667E7D4DFFACCE
:10212000F9F875E42E12B6717D5901149EA0073D91
:10213000946C9C90FDA637AB89E5866D799B5DF626
:1021400026C5BECCE57072EC39664E67C73696E69A
:1021500076D2D39D4C25673CB192CF7DFA7367FF51
:10216000EC2040F1CC0A9A79A766F55168A0F77384
:102170005B1D10C8D00582DAD376D062176F98162F
:1021800065C8A10C8B5B434A27F76C201569488F03
:102190009836E942E22E199646A3B1510623AE02C3
:1021A00010C12D0B06D2F21F97AA746E1179969268
:1021B0007F0CB92B1299D6B72E5F4FE9EBE35DD3B5
:1021C000B7710F11C8412CA2BF7A46D5A9C7367680
:1021D000B291BD5F65F7D7D95F85B64A0E8CE00531
:1021E0002FD890627530A5C2DA48B2F2AEAC8A1030
:1021F000B5A85D5106AE8098C49C3C71BABF22045C
:102200007087BBD1E52ED60576B0150CA41A0373E2
:10221000B52B6BB0482D5A0ED9DF411EDFE0FF7E93
:102220009D6480031698BCDE175DF0759BDCC04A88
:102230009C97C532C4251E718A6376B39EC5F8C5C6
:10224000356E718E3770B4D271467B148C5A3BF365
:10225000F3CE27FF676B13118849AD27B6200944D9
:10226000220A3DF343374D400AFAB4BB5DFC6821B6
:102270001097D260F3A872851EF4E7AA4D29D255B3
:10228000842B74DE684810F1024270BA1002E1C477
:10229000953271BCE45DD2FC70CD53F26DDDEBF094
:1022A000956918E53B5882AF57D6F2B56FB04737FE
:1022B000B0399A64820104F080E5EEECB8D35DC0D9
:1022C00025F963A100091390505B530AE6AAB50FE4
:1022D000D9E032F88C268780F45881DB1351317EA7
:1022E000C216D84119961E6E5A7C78ADE6C6BC5708
:1022F000D8CA56E605A1DD93DF79BC4B59CA7BAB42
:102300006595A7674D79F1DAD37FF7B24CBDE4EB61
:10231000900FBEE4D6D772F684C525E0803DFFBAA3
:1023200027345C3EBC01F3C4855F712D171F625ECC
:10233000EE6636C3ACE532670C9EFCB3F2C7CE192D
:10234000FDA542FFCCCF6F0FA6F489B30CA23CCF02
:10235000DFC77319BC60BC90092D3F843E74FA67D7
:102360007EF39B7F7EE9D168342D80525C9F1B37C2
:102370006C961E9BA6338DA31D785AD4D7F83F4781
:10238000B391541B400B5885B52092FF4040AA7B67
:1023900035AC53B25BFBA29A02A3AFC335BA90929D
:1023A0007311BBA1AA3D5FDA35FB3A2A410184DFF4
:1023B0005BB6661BC1122441A9329411449DBCC373
:1023C000BB680B2408F33B06E3AA6B1BBC06B3C136
:1023D000322083A67809C45BBC320002DCEAB62056
:1023E0004C04D0D3B94480B1124342750396C863FC
:1023F0003422DC391E40B1512A0B1D8C9540380423
:102400002BC442EFDA88BA4ABD7D9BB582F3AB415B
:10241000D8C0083432C302C3F65A17A25A26FFC7DF
:10242000602C861B1469023EE720BEE1A3C339D4A9
:102430002C70BAACCFA2AC8DD3C33ECC3890BB8E3F
:10244000695B2D93D38A94334495F30256709410AC
:10245000520599533FF51B10444B90267442176B5D
:1024600085A6BBBFE5B2B44DD444A3531B3318C2F9
:102470004A0C37EC2AA911D981F57B3A794B45AE44
:10248000F81056E09A2882A9AC0B3B5A8B400AEC14
:10249000BAADC3C0F8A22F2F34BB5E53C3B8C0AFD0
:1024A00081D11FAA62B6629CAA143C4614BCBBBA76
:1024B00063C66574C646E9A348719D1804BC6A9C4E
:1024C000C1060328C21BBF9388958D403C432B0354
:1024D000435B3C0973BC9ED08903A1445174B43260
:1024E0003837114BC24EEA3C48484775E430A81BC8
:1024F000BD18231602D44718A9B71A39452FE84248
:10250000F6FA427F630521033B09FCB7D9931F828A
:10251000ABBDDB53C8C55A8D61038452F8BDFFE4DF
:10252000B3C33AC448E20BBE2C3B3EE3B3C88DDCD8
:10253000C32E4BB337D3383413A0A5D20856C819CD
:10254000EE2B39F0F3203C3BC42F113F45DC08084B
:10255000DBC667F08247A4B99D64BF49A447774BA7
:10256000840FB3BF9F632E1ECAB414393AC9CB304F
:1025700000FCC90D23C5EC3222024C9BB280B53061
:10258000B90C5ADC295BA440BA3085C9D0B55E4B82
:10259000485FD4228AA8122A0304FD51AA1334C129
:1025A000B554CBB6644B63E4AF687441DD89C1C0F8
:1025B0009BC11AAC411C243C32482444002E32C03A
:1025C0000A4313AB421BC7C60B425209C5A61435BA
:1025D0005A100A7854C2B15831C55C4C7B3C257CFA
:1025E000BCC77823406209C87D0332211343321CE3
:1025F000C3848CA93E3943817C48F0D117365C0DE9
:1026000028B0825278432BCBC8D8BCC8D9CCC33FA2
:10261000F4433EB4CDDCC4CDE2F0A7041BC4FF0EEE
:1026200032B9984444F113BF03C449430B0456D84C
:10263000499D044249441048904C7783B48D223A16
:102640004E1C3AA45CB4798C4EA77B1BA82CC5AA5F
:102650009429F662BDD7D3CA0AAC29F8CA409F2292
:102660003BD3E4B5FA8AA9A312C610D418D479BB17
:10267000E33027A9AACF0802C4FBA4CF67B4BBB933
:102680006B469390CB16D43B012D090CD22A6B4C90
:10269000B006ABC16CC4B6BD5C855520CEC243BC90
:1026A000C10C47C553BC0933470441A2E874374500
:1026B000C8A1CCEB8ACD4B31A5F4D0F8A34CD1B353
:1026C000CC1515BDD578A55D8ABDD7ABC5AC2C4D55
:1026D000842C43F9094D843BCD25938D38BA083DB0
:1026E000A048F6E0C82195CD22D5482E5B3EE5EB0B
:1026F000C83153523B34B3E903996C6A3E754A9929
:10270000415A49AD084E97D4B3971CCE9C04119AF8
:10271000F392E514D39ACBAD32D04E0FBDC4FF4A2D
:10272000AB4EFD3B1B2148CC13DDB9527C9B932A59
:1027300045A9BC80AA444FF39CC0F2CCD3F2E94A2D
:102740005C9CAFC1F2C2B3AB2FF532AAB20C4140D0
:102750008095B774CB4665D4473DC115F4CF01755C
:102760008902AB09DAF13B1AD4541BBCC14EC5C176
:102770004FC5B64F2DB41F24CCB1221551F1B69FD1
:1027800038D31365CCC7F40A4558550FB5BCB8BA51
:10279000C7519242534AB5CD9CD118F54A3DCD510F
:1027A000D753B284FB55F62CACF2020C72D93D81A2
:1027B00068CD10144190A4CD6735523C84ACC9A2B9
:1027C00056DD94D68ECB3893DCCD8D6085913B3928
:1027D000424444E194C9D622CE313557321DAB175D
:1027E0000A823785D3462B03A8B3CE356591A75B04
:1027F000B476A5BC0FF3CEEE94D31A81B5C6B9C595
:102800005AFBD7AFFBA25EDC4A42C5A9236B85AE5B
:102810006432B15CAF683988389A48F95499FF003E
:102820006B20FE3499FC44C68C5546490550FF6C1C
:10283000C66700D99F01598F954692983619ACB654
:10284000BBB4410715BFBDFC542FD0C60B2DB470CF
:1028500064BC0C2D47B2BA00E8B457CA6B4C77FC85
:1028600015F7DB5947EB5916AD4C156D512B61012E
:10287000836CBD83E4D5203B48C58AA961DD51CF77
:10288000A10C7D612C1678025250D48A74D66885CA
:10289000D6AFDDC8B045D23AD42622BDB24390852A
:1028A000559005B45D85877BBE6B1D49E338AD95BA
:1028B0005CAD2DB5DB3C0BD79CD4DB7265CE73755C
:1028C0004E05D981A05DCA9D13CAA530CA4E74D3E6
:1028D00000DCD944C857EE745C1A81B5D40858ACF2
:1028E000E45334244DADD45131E225856D58B0CC3C
:1028F000BA80593B8CD80D48255D4735DDD285CB54
:1029000049C58A0865DDD6658508C52A6AB3C66BE0
:1029100063D04E75D950C55D5015479B3DCCFFB275
:10292000EA0013155C175384B7F2BCE045515222FC
:10293000DACB2CDAD52008866CDABF7A5E1F835E8C
:10294000C1B122C940CDCB05B886051F23EB97AB9B
:102950008502AD2D1891E9DAAFF5DAF2BDC3DBC41B
:10296000568D5B855858056B505BB545DBF87D5D32
:10297000B7B5568F2144E0C45F71EDD27135B49C78
:10298000F45B4844B4DC0A829C335E0DC3C44E1C25
:1029900029502C60471B5E7D75E0C7FDCEC8AD0C8D
:1029A000F702D83DADC0CEED933EBD60B014845368
:1029B000908C0B64D875A992387AC3D17D39D379BC
:1029C00006E5089914662A16AEBEA8CACF18DED846
:1029D000FFA4E100458FD67DDF087D5D1D7E0FD60B
:1029E0006509169C0F7CDAAA94B5C106B55DB18263
:1029F0005924BED09CB4509A1515DE354C472A2B6D
:102A0000765D60CBA30A2128832FC9891D38C70BA7
:102A10005B600154DE304E5ECB64DE58ABD1FFD23A
:102A20006C32AFDC2B6AF1A58113D6ECC53D3324A3
:102A30003B7CC1DAB30CDFE0285B881B5FF335D247
:102A4000B2155B26A5383FF648E278DFB45D5B43FC
:102A50008EDF438E5F210DC9292D1995ECBE2C8583
:102A6000492EB55B72DD5BFFE5DBFF5D3F013E900C
:102A7000C0CDB05885D303E61076C3866BB086EE22
:102A8000DADA82FCE2C165DCA27B60EFB453586BFA
:102A90005E6811D8BCF8533D6D23E8F5BAF674C8EA
:102AA000CBF060CB65D8A31A1DF91CDDD33566D4F5
:102AB000355D49654B8EE5A38F88151C76DD0B923D
:102AC000E6D7BD99D7B55497385919D4D41AE454D8
:102AD000BDCCDD6F264E524DBC0DD509540DC2A2A2
:102AE000F0E255D6B0E1950A13BD862D7C06A654BA
:102AF000E7CAEB0A5A8DC2CA243D5C859132EE1BAF
:102B0000EDC18633B6298684511BE5C5EB15C88017
:102B10004EC33746D6D9F00B2808D266355BFF3E48
:102B2000265F68ADD669ADCD6D3D5F4236E4427E2D
:102B30000FF9F5E8B5750F59D0566DE58E0DFA56BB
:102B4000E0CC5BE1143FFED5649D8CC49E5C100B11
:102B500000E5A065E70B70314E398667800675DEAB
:102B600030087EE57DD511592E08AD034DCB388553
:102B70000BB4510CBECA85853D2F0A616265D8DD54
:102B8000FBC0AD2DE644B1CFFD843BACAE58AD4E9D
:102B9000466646C91A265992780668D661D6A5E6D1
:102BA0000B7A0F56800F44D8E19718EB6C26626DB4
:102BB00036E2BDBCDD9655629A95D927BE59C3F45D
:102BC000365C015E9EFEB02070B159C8889DE6E972
:102BD0000C7305A32DDAC516E3B3E0E7A1D69784FD
:102BE0002068344658802EC3381E38382E2CEEF517
:102BF0001B1715881578A610BC638B94E8D29ECD60
:102C00003FBE32401EBE3CAE9842865F445664458D
:102C10000EE98E5E5B8733A0ECC35296AC5BFF2D52
:102C2000C5DB4324CEBD2D344C6EE9BF4DB40351FA
:102C3000BA059E05177305E9B2C49F39EC0C6B8584
:102C40000FFBE9E9F6E93B15EA82F8139A3A68DBEB
:102C5000D35CB0BB3D843EACA7AEAFD62023D6F844
:102C6000C041B98AB444E6F53EE6F65641B07E6B03
:102C7000B2DEE16946EB6A7E8F4C79DD9260DDBAA7
:102C8000FC3BB92EE223D65D700ED552BDD9542D32
:102C9000AB10FD6B7556049DD5305AA0E255A605C4
:102CA0007C66EC3136DAC72E08F3EEB73316E8F659
:102CB000FA9E8036E85FE4D1EDD1DE6052BB326629
:102CC000E800800216C008F115D23D9E68D32E5F41
:102CD000F495F18361DF8D8E6DDAC6F1D9D6F1B648
:102CE000052B59C0EF1F8FE4FC45B994B66496CE0E
:102CF000E4BE25539B53570879EE06DFB926CFB0C3
:102D00002F2040A86BDC2AB7EEEB660D25D1C5F568
:102D10005CCFCB3D481016EF30F7A9D9C06EFFF35A
:102D20000E465238E1D05A6115F60D17BED8166618
:102D3000F3ABDEEA39D7CF8EB573BA63DDB42D6B52
:102D40001EE661B55E6B04C5A09F9933FE4659BB74
:102D5000FC6F6C04F024264E256E620CDD6B6E0B4E
:102D60008AF91B8A0487F24A973F0A9F70C51E3D65
:102D70000BF76C8398ECB094DA36CAEC5FBA515F0B
:102D800083C883E87417658114176DAE9DAC1787EF
:102D9000758946ED3C1EE424A5388E86ED44D67533
:102DA00090EE68F8C0A7D7BA145608043AD36DEF6E
:102DB0009BE4BBF5ED4BEE5F24175398D62D0B88A3
:102DC000CC4693E79F9CF60296E76A9776511B22C2
:102DD0003AA5EEA81C2288B8EEAB2DEAB2D3DC816E
:102DE0001E773147774128737E1666D2C163AB7672
:102DF000EF78676F64F6EA6534EB7B3F6B6ABEEF92
:102E00003F2724042574C1DB544E7D5001D7DD9C3F
:102E100014E7713CD5DE35AB0E20834A77F8FF0D01
:102E2000ABE97A465E5BD5E77CC680C73EF181F8A8
:102E30007411DFEE6145E82EFFA95E56C3D4946A93
:102E4000C6BA70543708D1C6E3167F75188F758AD5
:102E5000BEE86BCD6839C4386B605B5EC7F91CFF98
:102E6000681CC794B5C5147F37E9FBED19224F766E
:102E7000231F6E74256E05E9029D7E7887A7E76E95
:102E800007EAA8B79270475A41A85E5E2C770ADE1F
:102E9000555AD4FA74F7B5324775ECAE1228D08D76
:102EA000F41E5002BACF1756FB37EFCF7A4FDD7AB8
:102EB000BF731B060969DE73FA860FB5DE7721063C
:102EC000FA7F2FF4D99D6B24AE6B45CF49BC76E2D7
:102ED000C2D4D073BE00C06C86786E7A288FF0C6DC
:102EE000CEF4C8DFF4A98F5C7097A2E845C3D07C0C
:102EF0005A8383DA9137433172E3ABAD92540F6D4D
:102F0000F9E0DA5A77F9D40FE4B14D6D2765FD6D1C
:102F10007AEDD7DE759DE7F53FCF7B62CFEDFFDD24
:102F20003EF6DEEED2DF5EF6A34FFA446B0A52980D
:102F30008599DEB056E83048480416D33057707093
:102F40005A70FEE58FFE4F967E170340165B7E4A51
:102F5000BC8B79C4300206BDA78C7AA87F60CA8F6B
:102F60005CC070C0A6BE29C1B2B5F1E47C531F4D50
:102F7000B493E52631F36023FBFBF03379C7FF7987
:102F8000CFFF1906B0F8AEFB7C078843AC10B11236
:102F9000481011C2840A17326C4826E1C3886424A1
:102FA000922933B122468B1A3366D4512648191D13
:102FB00041468ADC11C424CA93412EACECC0F21005
:102FC000990BB4B0D1AC69F3263645422E78E0793E
:102FD0004108246CB47612EDB0B3A71021D892FE4C
:102FE0009C79D3CCCF204E6999491A4488229B54AE
:102FF000930A918AF32BB63217C692C540F6ACD924
:10300000B1692FAC6D5BF6ADDA002CE406A85BF776
:10301000CA95B97705B5E2EBB72FE0BF8205FF117E
:10302000161CF8B0E1C4880313EE5BF8CAE3C2844F
:103030002143F6DBB8B0E3C985F5721664772E68D4
:10304000B92B00917AA6CAB4E96ACE54B35EEDBA40
:1030500035ECD7B263D39E6DBB36EEDBBA9FB9E6D3
:10306000ADDAB733E0C27B13FF5D3CF8EB55B20E2F
:103070002D5F5ED0397381D19F4B2F387039C2815B
:103080000813254CE4051119EFE0C587F7E2FDBCF4
:10309000F9F4DECBA4671FD2BDC7F8EFE5D30F224A
:1030A000F27E100BF9F7EBB7D0C17F19607DA55305
:1030B00054665CF553563B20E5D3511798D14A83AB
:1030C0004ED9C4602242B17101248AD052861001C7
:1030D000D2B4831089D0A20854120AE8CA4E66F509
:1030E000A4225B3EB1F8A28B31AE28638B7AD9550E
:1030F000170B825C71230BADF8E8235F40FE186468
:103100006699497624668DFD28249097318624940B
:1031100051E215259582D888A38E9FB1B025FF0B6B
:103120002B58A1872AAA38139C98C83DF38C71BCF0
:103130009D996670689AD9269B6BBE29A79AC8C5C7
:10314000E9DA9875AA96A79D6322C727A07F0ACAC5
:103150005BA0840EEAA7A18922AACA2AABB0D2A892
:10316000A387346A1D2BD6117448760D69BAE943DA
:1031700008750ADE44A08677914513B9379117A6E2
:103180007A5106AB1EB53A524823D927AB4923B131
:1031900064D2052EB934965702DA049510121268DB
:1031A000C64CAED042154F1A1A3B53101860E0813E
:1031B000873529B262B0D84002D4AFD55665625780
:1031C000BED204955B6AC1D5A2B8E5927B6EB85BAE
:1031D000DE88632B797DA618BC875136A565492EFC
:1031E000162FBC9151A623BF9A55766F6492AD5BA2
:1031F00057BBA18506C568A595769A2AAC35AC5B08
:103200006E11433CB1C4113F5CF1C5AF5DBC316D83
:103210001C379C316BCA29175D73244F571DFF2241
:10322000D059CA4A20090992D0778890775E798967
:10323000D47C337AEBADAA03228124D2327DF30908
:103240005D9F48FDF1979FAEFE59F0A0B734050190
:10325000ED4D079A58464F260EF5D34FADD4E40AEC
:10326000B0088665C64D90C8B454B43471A8B58012
:1032700062C3D813DB2DCEF8B6DB71AF1DF79576A0
:10328000F1B5E38D572CB924917B3386179795556B
:103290005625924612CEEFBE78EDABD9E192E1CD44
:1032A00023615A82C68215569052269F756A3E2720
:1032B000E79B7BDE39E89F8B1E3AE9A39B8EE89B58
:1032C0007942DAA8A2CF40FA28EC8E463AD0CA9BBF
:1032D000DACE2978B953741146A666242919AB1C95
:1032E000A2914715790452492A8D94524A2CE5FA45
:1032F000BCAE179461E257C8565BD388D42BC21377
:10330000F54278C0545034D1F293F73BCCA44856E0
:10331000D9BAB254F8351948BD4DDBA375D6FFB8FC
:10332000F3D38FEE053BE06F160674D9C80264062E
:10333000D6237CDDCB31809BCB941287B8052AB095
:10334000810C64605E104899763969308E9BCCC0E0
:1033500002A02383D1050A2C0004209C418A6A9C88
:10336000866226ACD809538842E3C40638AD71E1C1
:103370007186C34232596315B158450D651829E865
:10338000F0503A3DA40E220C922986CCEC3BE5414C
:10339000847A9298B355B5C70BCF08441956F18C6F
:1033A0009D0DAD8AF78955D18ED69FFF70D1022130
:1033B000829F4DA8F6933264081BEBC389184D0415
:1033C000210C512D08354984077620B610DD647D27
:1033D000893083878E1535627D251AB3901B8DE663
:1033E0002648197561153A48518CEA86A30CE6689F
:1033F000488EF49B9090A42EC13D8692F3521C26D9
:1034000033A9C94CDA885E854B1295142997FF7150
:10341000694B95530529FCD4A7CC11474F9CFFBBA2
:10342000132C5F893AE0B0B27587AA532D51572803
:103430005D9A094D254C14A36C08A91BE23238AFE4
:10344000931DA55686A983DCAE999F7AA6EE2662C7
:103450003355F9EE10CE40E22AAEB903E2B12A5656
:10346000C893954848A2929458602CD1DB55AE760B
:10347000A021A10CA841CF3243FAE2C7BD9BEC00CA
:10348000031A6A8A5076823E0C5C4F7C55F1801B91
:10349000C1529533D6E41AD7E08D17D6623FFC9916
:1034A0002B5CE4C20019C41408FD398B7FFECBE00D
:1034B000C02A58C04822464779918C019FF44007A2
:1034C0005E322F261DA5270978C1C9D4ED7F179D2F
:1034D0008B15A0A00785A50664B3B1290957A8429A
:1034E0009CAAF03638FD69C71C965390356C15D5EB
:1034F00030AA306561D48F85AC6425A30E5451A6E3
:103500004C97C16C3B46A41956CD5333253211114B
:10351000621A5E69A818B4B162518BFC491AFF5A4D
:1035200073A59F1DE0117EAD80C4819052B6B0544A
:103530004D2B3B81C4D582323E21B8628EF1A44925
:103540002220C1A1B93A0D2B6F34C30E58D10C11F2
:10355000AEA46D701BE46303A983671C43848810C9
:1035600009D64489D100E8AD6F8FDC1B9140A938A2
:1035700025016648A1FDE4653C3AAF0D6E29A52002
:103580006D1C0637EBBF2D1D604B7A0013C372799B
:10359000BADD96AEB7BCFDAD6F4BB754D7ED093968
:1035A0008DBAE1EA929B5CD7AD0E7606A95D33A396
:1035B000EB2988449322A5FADD98C0233C8DACCA40
:1035C000781FF1E6AC9837CE95B4047AE6352759E2
:1035D000A627A06355E52704CD094FDEBB140F8055
:1035E000CD0CF4C5867D95A2080C980F2CD3FAEB70
:1035F000B50C2BAD7A76C119CD58C5FDE8A7D071B1
:1036000039747E3BC0DC98181588555C7491186D30
:10361000A44A0B689909FE456B4CC286D6ECFFC5DF
:10362000D1C918D04A261D9CBD124325467EE6A569
:1036300001A81C699EB1309DD2B8A735BEB16C649B
:10364000D827173295A946B593306B78C31A2AB597
:10365000C8232B59A37E78B21FA66C990AE18E5518
:10366000C773D5292F7189EEE9826FA0E833B27252
:103670007956F8311A98BB8856FFF4572B6494AFEB
:1036800018DB47D7B16DEDAE4241909BE758A1BF23
:10369000D624087C74C585CC205FA7216214ABF0CA
:1036A0000222232B68400E7A15951D85332AAB68BC
:1036B000CD6E566FA57DB46799D4175334895F8F4B
:1036C00004B18F6AF261D372BA2F9A8C52910EC7ED
:1036D000E875959205329D69986EE926CDADBA9749
:1036E000716AB59A600DA739C97A38AE64657115EB
:1036F000B5CB5D93694DC13CAA1409F50CE40A539E
:10370000B94A9DD4EB0432BB4A3D7799DA91AEA613
:10371000A0E9A9505D649A1CC9667653C5AAFF55F5
:10372000B5AA9BE1046F3895475E5C450FBDE55631
:10373000EF4DA685A19B8CEF027FDD9E07A8D72CBD
:10374000B05D0D5833B1378AE88C5FA550C5036A68
:10375000C6492B10514E0533B8E00D1DD70E52A9A6
:103760004A55BA78D439CAB04AFB15181053DCC38D
:1037700098B6F8874109C0C5493C5F48A28C285DCE
:10378000CAC1CACD54C6BEE1D86A509ED3940B9527
:10379000E52EC731CC79DAF295D35C6343BD39535A
:1037A000598ED4A30A59644566CE914DE6D4EA18E1
:1037B0004465CF6D19425E86909815D1665975BAE9
:1037C00056D1131256F466781E11AB1587362B307E
:1037D0009F55AD62664940BFA220F3CDA415B478D1
:1037E0001A9BCD5657ECB9191B70E44940E7B83E17
:1037F000B6B27BDD9028B3AF08C4A2B6ED3D907E93
:103800008F2C659D810C67207A4CA3906DA317C304
:103810003748AA18C578F15BC521EFB7C96CFF120C
:10382000C5B0FD38E279A42EDBCE74E1C0FD7C701A
:10383000416FBA5F86FE951C1BAE3055A7DCD527BD
:103840003776AE6F36EDA01DDD88E84E54BCBBAEBA
:1038500057558908566564554078CF3753B2BCF147
:10386000E2AABCE77C9EF47C05890E984508664078
:10387000AC59E80C150FD099F9607BB3599CB2DFB5
:10388000B1898D8FB4806BB06881017866A8FCFA2D
:1038900036E34EEEB760732D74A16679F0C2196EEF
:1038A00061BAC816C31ABEFF861BF3AFC254FCE24E
:1038B000FDFF8B036D5CBF68948A318E67641E07C1
:1038C000C1941580504DC19C8D3D208DD1D4C2A096
:1038D000866DC0D00CE11C069EDE90055952F99C05
:1038E0000F7D60542919760811332D44114919129E
:1038F00055195745110B41119765DD157D995929CA
:103900008D9885DD7A810883C811F57048DA9911A0
:103910005484CFF7398853745F8504615740FF851D
:103920009EB91D51FC040E26214E2442A0119A146A
:103930004296DB4CD6A1095EA209DEA8359A8841E1
:10394000DA6709C229541A954006244D9EE3545E55
:1039500095184E28651E8FCCD66D5D4EA0FCC6AA6C
:10396000CDA11CD6E1ACD149ADB5D28E710EAECD94
:103970001299E4499998462E0D62CA5143CAF91A20
:1039800071358A31350AB0151BEBC90EB23957A50E
:103990004C5509CADE42489BEE589BB5958135A926
:1039A000D22A9041AA5404B7BDC7AB7C93388993FF
:1039B000780DDCF1B144D3880F244002F9819119CC
:1039C000C1CFB2608F1E89CF2D8A0FFA6888841804
:1039D0000B5E29C22B8E8880C8CFC11523433114BA
:1039E0007F41D8C2B5D8FCC91601E25F4731CEDFAE
:1039F0003C63FE35D0890DE0FE3D89910C8EBB5CA9
:103A0000588B71101440016990900502D54D05D571
:103A10003942600A99DC044E20C3D01C50F5FF588F
:103A200006D2DCCE211591F9DC9105DDD08520D1BF
:103A3000D14EB351D5D24519CE441D414A1D19E886
:103A4000892AB0C20B2E645971DD16D1603AB5A235
:103A5000AF5C83440AC82C7CC545E204454A6446F1
:103A6000D64419F0CFDF4D614862800E64E1E02159
:103A7000DA49B2E185BDD661505AC44923DF5C5EA4
:103A80002561924C8EE1160AD0E6B1C01BDE52E9E8
:103A9000895E4FFEA420FEA150EA569F18223C1ECC
:103AA00015524A9131111BB13DE23145E2EC5C4ABD
:103AB000EC59A2ED4013456C62F0785EEF6D04376F
:103AC000996278119F4A38CF2AF64A4596A5599EA1
:103AD000E5598A4582ADDF313A94597841FCC91FD6
:103AE000FDCD65C8C945674123BE2C5087E12560DF
:103AF0006CD203D58B1A5E105EB0A1C8F9CF02025A
:103B0000C2C939A062AA236E48206ABC2364BE9051
:103B1000CDC92365DE1C526D2066E290073EFFD5BD
:103B2000928160675E87937547774C190A6E959509
:103B30007901D58DC99E581D7CC0A0D6E1471619C4
:103B40000D4BE4404CB8842CA2256EE6266E7EC157
:103B5000A051216415D8159EA4E0A9E48575D6333B
:103B60008E58609C42BD0CE069799692CCE468194D
:103B7000604DC616712E529774C94EC65FACBD1A01
:103B800077D25A77B2DA77BA1AE80022790A655002
:103B90009E27EA5003359090519E862F25A26F0CE8
:103BA000937C1ADB5346CAA40804B3F9E31051A569
:103BB00042489BB5898A45609B2AA942459C8A81D7
:103BC000BA8A37811B38C98AF3AC041058932AE8A3
:103BD000C0BAE9268556286E4285C1B5A5C16100E7
:103BE00022C4A59F30E35C7A2302411C5E62234B12
:103BF00002A6BF2490897E1C929802373E8E4A26E8
:103C00006000404115C498391EE5CBA99C8EDE9812
:103C1000CCED463B3E6603E61C06B25C65FAFF58F7
:103C20004ED563CF35473E0E1D93F6639359C7D1EA
:103C300001241209E4D30DE479285C9D28646B62A9
:103C40001D43CA6016494F088D49205C9F85A2A577
:103C5000347CC54696694169058DF0DD48065220E1
:103C6000101E16161EE15527460D0E5F5AD036322D
:103C7000E7187EDA748EA19D6ADEE464A71FFAA4B9
:103C8000A10265E9FC52207AA89F18A2A33A437BBF
:103C90005A26B0FD12523925EBB91E32C15E25F20B
:103CA000E725D61E45808745184A9E700457FA1EA0
:103CB000F0C58A78254FF344942A3D03DAA8694574
:103CC0006EE46DC2EA5780CB5ADEAAFABD8580C683
:103CD0002588BA94005D141992280191D448A9A8A6
:103CE000BF1C89E51DC9363E4E68FCEAFC81E30233
:103CF000CE18634EEB62D6063B02E9C70429CE51CB
:103D000043910EE99192506626A907F223B976668F
:103D1000103DDBB33D19691E1157A107D515FF579B
:103D2000350C0F97BA26D19401D7E9002B2C6A7075
:103D3000D06A595688B1F0AB44AE516FBEE98C944D
:103D4000412A09E7E0551632DC241BE2E95E86963B
:103D5000291460609AE825F1E99F4209C36ED65C98
:103D600008C02811AAA1D8219DF446AB812C1DDEE4
:103D7000A11EDADA1EDEDA9BE45A20B66C791697B9
:103D8000218EC9A392E37BFE98EA396253AEDEA38B
:103D9000406532FDE3A6F2272646C47F2AE335912B
:103DA0004A28BA47B795A2828A1310049187A62998
:103DB000C0E61DBD1156D47EC54A68A831BA0506B5
:103DC000C025A33A0388D6DFD73E5C9E96A8012A79
:103DD000509524EB8AEE69378628E225600958C1A0
:103DE0001394DC8DDA5C3AC2C6DC562BC4308CC925
:103DF000E96DB7F6ED3CCA2392E2E3CF0DAED07980
:103E0000A6D1F9A37E265D55C90C95596979E4AB15
:103E1000E6300A136D29BD0E4D10AD0262CEFF9241
:103E2000C2554334D4C49956ED4D40C80E80582233
:103E30005408D4822E366CA4DA10AC489AC52A2CC9
:103E4000164ACA694ADAA96689ADB002CCC5E62E1F
:103E5000B2AE6DA08E12689C5A2AD9D2A10E2FA2A2
:103E60007E0EAF79E8A3CEACCDD5632332A5A536BF
:103E7000D73149A254FE2CA74ED7747D6A5C3E030D
:103E8000A96E6F5782574A106DF6A26EDA241F2D65
:103E900074012B88AF7FB55F862E98597468D77AE6
:103EA000EDB37E6DC341CEED0A6B6AA1E8FDAEE8CD
:103EB0006BE9CB065518718E9C38662EDE0E30B538
:103EC0006A0CB692A3DF2630065EA666866BA35CFC
:103ED000CC674630936187098E66693E5D7AE42B34
:103EE00002939033AC82CEB8C7BC2EA47D0868AED6
:103EF000F9C96F9C2EFA62C3D899511004020AA323
:103F0000EFF80CAC0C5F0019A412A205A7EC662C0C
:103F1000616623724A5A686923944CACEE1AFF20FA
:103F200067F4AEC140C197281C9E88A7708CACC9AD
:103F30006EA77746F1E684A72B798ECB9A679970A6
:103F400030A442EA7AAA427B2262A586B1F3D2E784
:103F5000CD16C47D4EA2CF1644F55A6FEEC8CC459F
:103F60002042A3484776ACC2EEB187AA7017372922
:103F70006DB899C4AE32EA33A470BA8D05BDE5CFF1
:103F8000F902B2B464EDFAB608ABBEAFD7366BDB5C
:103F9000CA6F5D9CE8D8D6AF86058CC5522C07C584
:103FA00068009880FFAC801EC4ED08EDE8CBD1AD71
:103FB000DDCE9C281370CD39CC012B3091FE2D52D3
:103FC0001655528AAB5291A33E16EEE19E0C252E59
:103FD00004D3356E959EE6074FEED5556E7CE447CB
:103FE0006AFE1296965035BC6A0A234B07B8D11A5E
:103FF0009541211BF2EA3A56EBC60822D8B09FC47D
:104000002E9D1E5EEF72A1B212D0E2455A2BB082F5
:10401000232DE7107F9C0E5F18687C49E711FFAFE6
:104020003B176F701D6FA36EF1CC022E2D37EFF38F
:10403000428AEB60EAEB21EEA6364AF5D29E40F3C7
:104040008EEF7025F78A6219FCDEF194554A7422CE
:1040500023BF30E8B61BF9A69721D30431121C22E6
:10406000F3571FBF6FAFCA6F61E60D8A4EB2481794
:10407000E048212B26FB2F02BA981E24B1051630EA
:104080002A3326DFD694B62AB0DF3270CFC9722D1C
:10409000972B935943845170BA7A0A2BBCCC11B137
:1040A000AB0AFA32300BF36BE6AB6A2E4AE64043BA
:1040B00045EB0F4F8CEE1A8DC5ACF22BB2CC308C89
:1040C0000441215D210EC7AEC2EAF04DDAEEFD3AA1
:1040D000864B96A159FB702B8421289D739634231F
:1040E000EDCA45E55801E65471C936F10CE121C924
:1040F000DEF5CA4A311F1E4A799EE715C32B3D6F74
:1041000031CDDE33A4E0F37159EACE22D3B2E5B269
:10411000B2B56A682A8414B142D052D7A848FF13B6
:10412000A96436352174D226E81E07C1467BA8351E
:1041300018F2450F3259E01DFA42B55BBE4545ED18
:104140008017802F23A3B4C622DEE3853489A235ED
:1041500072E60B375AF2FEE94B26136600ACC045F7
:104160007DF24CA5F228CF1C29273772BF346CFC96
:1041700028DFBA324D4B2A2CDBE3662EA92D1BAE6D
:1041800074909006DB49420A44201404A11C42D3D7
:10419000396E514FEE5187B015D9879A2CAA9A28BB
:1041A000F11FA7B0C0466422B8444F7400D5462D15
:1041B0008A88E48CE447196099C2CA2E806BF39C0C
:1041C000566758EFEF371FC65997E10F9BF339C376
:1041D0006837AFC03A574EF0C2F33B9B4E69F4A428
:1041E000DEF212F2CEB3512E6F5222B6233EEF62B0
:1041F000F7F3F43E8AEA882AA228E53E0374A70A68
:10420000B4A800A8661F34572E74B89584FB327288
:10421000704034BF5E342B4A34AF54B59AF2FF3845
:104220005BBE25A3C0368E8F89FF46105DEE7034CD
:10423000F2E5207861FDF2EF6EE32FC8B1ADC62A3A
:10424000F9C87D09620AA94B77393B26034D418C99
:10425000633E776456662B2B70E03AF0A3ECA30420
:1042600067B70923F32AA55CEE60CA50375DBB36F9
:10427000D107077397BE8705449460F39A8EC36A8B
:104280000C3F4F1CB95D7DFBC4F9016C3DBDA9100D
:104290008490A2CD29A4236C800FE7374286BAB45C
:1042A00061E681941876A1382B7839F785720AF186
:1042B0007432EB0E3B380B948029598EBE32715DFF
:1042C0008B2C153F31ACCB09299002982383C2F483
:1042D000E15F5F3160AB6616BFF917D76C23827858
:1042E000CE26597D9A7163C31EA468A78746361BE4
:1042F0003F13B561B6EF6CB6817617297A36AC8478
:1043000076D7BE37EA5EED59040B8F53B5F85E4D94
:1043100046EF008A1F39AF3AB2E25CBA9533FF52DA
:1043200036DAF648932DC5769C4855B923AB33E071
:104330007CE38BC5ED969BF2721F778EF2BB8DD11D
:10434000BA63D2D4C58CF9DE3EA62B9F634D7F6B3A
:104350003DDE9091296993B2B9A52C476A1830DFE8
:10436000B24C559177419AA679536E974614352CE5
:1043700056AF8DFC798E423504BA859641F41CBA4D
:10438000DBD1B74F14BA46C2AAD8C08D9BB6AFE1F5
:1043900041FACD0B67CECBA9E13D2B26A5B35CB08E
:1043A000A44B7ED2613CF98257325B635E8C6E1CFB
:1043B000EF0EEA02B2378547BDE7083C985FEB8510
:1043C000AFB73364387A663B2F2DB06127763EB79E
:1043D0001E634B2F74258480EEB3ECB9F8EEC4B89D
:1043E00041B7BDA9D2F84994011C4B0AB68B36E8F7
:1043F0002A42799D85547CFB58DC7799D2826AE306
:104400006AFE18B9B97F28BA631224B33BD2BFFB46
:104410004BAAAD248B56FFD63BA97156BAE3FF3B9E
:10442000E5E8411E34A0BF33774FC958D50FBCD53E
:104430005F2B99CF745045B74D73A0C38F6B9BEB27
:10444000B4B251B0CD6C47A79C2051DFB9D435111F
:10445000528F957D8444CFAC4299C4ACA08C09CADC
:10446000E72633FB84CB6FC8A11F3A1D45AD82E818
:10447000F705F0409CFE77EC0E9EA4433F162AAC55
:1044800075DAA56AA5F3C36106A4A196C4AE75A8A2
:1044900025BDE324BEE6553EFD71C96D75DE5EE3C4
:1044A000F51DD6B5FBC7D214734EADDFFAAD9FC66E
:1044B00031E73AFE6F71A070EBAF7FBD18CF274098
:1044C000AC8AB58A60C155AC0A22547888554386B7
:1044D00088581D42047162458B17315A245371E389
:1044E000C48D1FC9904914924C199226517A0959CA
:1044F000C64B19973A5C96D11124884C9A4176DCC8
:10450000BC4093CC9843AA9C05153AF41A36A347AD
:10451000912655BAF468990B4F9F76801A24FF9123
:1045200019A8579F0651C4946BD7A3B47660BD8079
:10453000012AD9A718740C55BB962DDB002CDE067A
:10454000907BE58A20BA2CE0C295BB97EF5EBA82D9
:1045500004B50A3C587061C084111B569C18316028
:10456000C187EB1E5EBC18B25DBD71FBEEC54B97FB
:10457000B3E6B82C9E00B2B24AD53367D554553B4A
:104580009DFA746BD4AA61AF8E0D9BF5ECDAAE7117
:10459000CF6EFD8C146FDFBD81FF165EBA7769E3C5
:1045A000AF5327B78D9CB972E5ABAA41879E7A9528
:1045B0003581AB6461C77E28BB2CEEDFBD7B8F28C5
:1045C000FE7B44F31025A2AFE885E3C444EC457AB2
:1045D00019F97EBEFCF8F4E5E767B9BF25CCFE32D9
:1045E000018449C0006D9AC9822076B2A08C2E9EAB
:1045F0006926A867800A4A156B8AF2CA42A420B9C4
:1046000040AA0D2FF040C30BAC92CA43113F1422B5
:10461000910B51C4062CB2C8F2B0C5B13A84FF1157
:104620009163841AA546679071C6C61C77D411475A
:104630001F7994EB321638E3ECB2CC328BCCB1C09C
:104640005A29CC94C70E8B324AC3A4ACD2CA2BB120
:10465000C4F28A239114B2C8BB3C6361052BF4B049
:104660008294079D314DCD34D95CD3CD36E17C5356
:10467000CE38E974939464EE0C2E38E31E8C10420D
:1046800034DB42D3346A9C217439E9A28B8EA0E8D2
:10469000D434C8D147112248A1831E3A8F958C305B
:1046A000CD54A3F640EAD4A4954A0A152551458570
:1046B000A9A69968CA49559C58CD49431D5609F485
:1046C000990A53E44A11B170CDF52A3368A9B5AB04
:1046D0005B7585F1AA1D220CD4D8B63EF3AB48BC5D
:1046E00030EB52D92527636C4968A51D6C5A6B01C4
:1046F0008B0C4ACAB07DAC2EBA9AED72CBBFC015F6
:10470000F2B31548798294E44CD3CDDDDCE07D57DB
:10471000DE78E1154E4F7B87831042D4F675FF6E2D
:104720005FD99C6B4EE0E75EABEE3AEBBA038FA12C
:10473000F21826CFE187BC9BE852F72A7A0F91F84E
:104740002EB6F8BEFCF0C38FA5F7F6F38FC0014973
:104750000E308899500EE2C0953BB0205640D33CB5
:10476000E699687C558A960C49CC39469D478CF170
:1047700029335AA93929576E6531C61791BE408829
:1047800040707C26C71CCF84FAC71EA99E1A47BD5D
:10479000980DE0CB2DB9EC9248299B64B2B0B0A142
:1047A000CCD2ECB3B12CFB4AAC9DDD8C33CBF85AA8
:1047B000012E28F4A81B66359F51CDCDBCE3E47BC8
:1047C0006FBDDBF43B70C0F1065CB534794306B8CD
:1047D00007CFE4334D3F21EF33A8C35BA3861AD440
:1047E0000C2D2DEFD2A45BB4A0810802DDD1EC2406
:1047F0004DE810491972E8D28929D2D4758FDAF3BD
:1048000028A48B431A09D495542AA925DD5182E99D
:10481000259A6CA209555669DAC9D50E8278FFB976
:104820002D6884368A16A7AE924A2CE9B1A2FE2AD8
:10483000139BC746112170354B58610F39567C6464
:10484000F38A8BDC71C3F5DA2E6AA3E576FD6C2B57
:10485000835FFEF7DF6F9FB1B2BFBDC23371BFB5DB
:104860004B7F73F3B282BAE9A137B231E06B0E58D5
:104870001B05D28681F492D76D6883AF7BEDC93773
:10488000C6E9D7C09803300C52A7608932D840BA25
:10489000B39D8485476124340FC41666A9405444EF
:1048A00010EB710F7CE8731F19C6B0632DB161C89E
:1048B0007058321D1648653D5C99CA3AA003A7316D
:1048C000CE343E72863568562B4598C1021C72E282
:1048D000CEA0E821297E688A422883AF680116EEBF
:1048E000B92846534C5A100071A3A0546D8C562B16
:1048F000238F6A8497211169595D43D25F244398BD
:1049000026CD718E8D41DB1DF178A56FB9912F6E8B
:104910005B5698F06205D19C694E85ACD321FF0DA2
:1049200099C83AE5095F8F7386051DC92663118A08
:104930009285D2200739A7A8CE3D8A930699D44202
:104940002C55A9D78D92531733254950F929528DEB
:104950008A952D0102804ED5AA9BAC6A553BF95031
:1049600007C277AC67CCEA42CF4350B08019CC1D68
:104970006CC542CFE35E30BD471632146B7CCD145C
:104980004AB2F242246996CF596FE9DFFDB019AD02
:104990003C5E6B5BD99456FF98C547ADB1116EE58F
:1049A000CB4B09F6A007D15CB0340E74E7BCE0F93C
:1049B000CE344D305FF7B220BB0296CF0D62503A35
:1049C00003B18E3FAF13C2878D6761036D98441E9C
:1049D00022B18C688CA1ECE1D8436BF8B11BEE904E
:1049E000A22613D0C97CE843A92CF34F92F4E883A4
:1049F0009E610D56D0E2444173054943444595F20A
:104A00006CA5516CA987AC480B9362A3152485C48F
:104A10000EB877CCA3ED948BDCDB01AC6C14FF9467
:104A2000A8FD088D4FB35A8E6854546724D59C9FB7
:104A30009966D6AAC902FAC5B18E550D9B29AAB5A9
:104A40004DB375F35A52025354BFD49768B2000A5B
:104A500080A85B01D73439C4E9CD6F6D65EB5BD9B4
:104A600044B8B81E5250A721C55DEDF54837452E14
:104A7000921DED286A8252C94AF26B73CFD8A426E0
:104A80004597584E46EA2007511D7A56971ED691F3
:104A900032231D3125EC3A65BB50812A25B88B891C
:104AA000EF82173C8C0A4F96C7FB502E9B79885F8C
:104AB000DA1241D4732D545E3B3D5C590F573EFDD5
:104AC0005030C5F2532F7861156772E66FD502CD6D
:104AD0003025AB9AE4629F37ED975CAA22D79B956D
:104AE000D963FAFA384DB186330050B04229AA0092
:104AF00008E51CD03510E46E03E3191BDFD04B82B0
:104B0000C3E157712AA82F7DAE779F04E320A2024C
:104B1000AA9DF088F010D131E176087AC2C8FF462C
:104B200096852E444443EB13E08D45F486FFF94F00
:104B3000454986D11F2E78433960DC837234CFA07B
:104B4000AC42071B6AA2862EFC440DBFB48B1C2608
:104B5000D114BDC8D30EBFC88B1640C4991C4423C2
:104B6000A10A65A84105D28BABA6D451A851486EC5
:104B700014A797AAA4183AD291B954D26A1CBBAA16
:104B800047FF5137AA4852A31A05490A022292C97F
:104B90008A74F23CF164483C45F95E71E26B1103A2
:104BA00025584B2E875D9B546C2721D5D84611C4C0
:104BB0001907A1C864299B29CB7E84769E3AC92A0D
:104BC000E1DCBB32C492B4B494A52D39140466B6AA
:104BD000E510B7F5736CFD8C5B410F9AD04F5926E9
:104BE00070113D941234954BD43472FFB4D563499F
:104BF0002BB79B94EE16FCF247642337EB32FA5343
:104C0000E30A0201085200E282F20CAFA9ED9A0C0D
:104C10004FE0E95DE50D4E77D37B1C59B797FFD682
:104C20000493CE3F3F68B0117E2756864BD341F3A5
:104C30008B88885D24111583E1B1330651654B14CF
:104C400087071ED9B35396B2056BD4654201AC47B2
:104C50005991E15B6E5B671CEAD9B73DECD20F8BD3
:104C600038695C34378CB80846A2AE5B6AED76468C
:104C70008B8F0AE3AB69BA9A8FBE12D976BC63B147
:104C8000EDBBAA970E728E818C2D2D75C65C6D6B57
:104C900074380379D7BB024A7085EB9B5C7709F1C6
:104CA00086B3094F774DC65A17A938DEDC4D287EEA
:104CB000BD7284AE4DC9CBA92273114FD3613F970A
:104CC000F24791AEB1A5E3F82A5A17F3345F64CDE9
:104CD0001C991D4934AB4A9678967725012DAA4434
:104CE0003BBC9C148F55DBBE00198C75881D009A47
:104CF000E9B075BA6CA15EE8AB786FEADD83CA0EE5
:104D0000989668E052D7C651A55FA4DB47B6498F95
:104D1000DDD23E5E1FA43D0DDDE1968F6BE3FFBC4F
:104D2000821E4AA107D264108175F76EDD51ADB7BE
:104D30003BADBA800F2C2FAC89A35E76EEF3920CBC
:104D400074AF07A3836B817287BE766F972AF42BAB
:104D5000EC14566A851369E144D8F3DF630B988637
:104D6000F621307F00E46C04F370DA2C6BA205901E
:104D7000BE71099739C3ADB7F086612FEE0E831B64
:104D8000C4B3B7FDB9435C7BB2A8BB8C2B3EA31167
:104D9000E5FD7B17CF98DEF5D60C1C019E6FE5E78D
:104DA0003B3162E72AD898FBEF2ADDC5D15E3BF89C
:104DB0009159B0075193BAC9DD7FB29B90518A3C9B
:104DC000893F91F4B4B29AFC742C2D674EAE8CF2EC
:104DD0003298E13FA9B6AC429433D7149BF18FCA05
:104DE000DBC57995AE84A54D5625554A0B415AEB46
:104DF00096C680CF9CAEE9A24EEA18B00171650755
:104E00009447EBC447D38644EDDC66AACACEF9C802
:104E10006E03B5C95A206DC89A2A3318ED2DFF10BC
:104E20000E0AA020EE460DEF4E6D05C98BEFA6CC05
:104E30009E5C8D377423D6FA65F0D86BBB0C8F3926
:104E4000FA29D7144FBE0AAABE56A35DCA0CD8BE13
:104E50000311124AE68C2DD99450D96A0864F443A0
:104E6000F4A00DDA4E86F432CAF458A1E384621538
:104E70004EAF655E8FDBC20DDC582A0C6DEF2974D6
:104E80008FDCCCF0DCC8A20C866AA88CAA47DAF0CA
:104E90004792EAC5988A046F2CBAC84949AC646C39
:104EA000966F0FC586C73A70324EC1499E0F6DA8E6
:104EB000AFF8BC860ED5C8BA4A41D40A0871E6AA32
:104EC000AE206E37E0C4D7D22A4F2C4EE1F044FC1E
:104ED000F044E318C9B7DE4472FA8AAF2887502637
:104EE00087E456034D3CC8734247E5C08CB110229D
:104EF0004D5EB1CCCE4CB2EC0F236A0EB3DA2CE788
:104F0000DEACB378E7253E0B7886271807D002A2DF
:104F1000E20280802D944E01FFECE996B118FF1754
:104F2000D001A52E99A0A20CF64C02D9C210F7E729
:104F30002D4A605C94040F8FCBAAF40D1C39701CB1
:104F4000E3E7ECFC870E896BEDE8D004A2E9ED16EF
:104F5000F1AE58301EE3A53456CD053B3106F7447B
:104F6000BC02EF9E6A0D830A6F3A104FD7E44B8460
:104F7000E84B1652833B4A83084389BF2CCFBF00BE
:104F80006C863C8F090BACD9A290A214AC0A816844
:104F900027BAE0C158AF0BB910C3622F245D6A8AEB
:104FA000C6ADF64C72C46C8FC4CE1046CA60F8CC45
:104FB00048DE642CDE88AF0E6B8C1BCF460FF730BB
:104FC0002775520315E349B0E9C7D4886BA04A049A
:104FD0001111FBA0600F146E5DBECFFB2651123382
:104FE000314F5E5013A1F21E17A79DD2CA713AAA83
:104FF0002DD68FBB1E04BE56F12BE12F211CC515EB
:10500000210B096B7153709124DA4CE7F88F957C72
:10501000AE0C5E4918EDAC960AB06522B0CCFF2A02
:10502000CCE89A712FA1B12FFBD26810C11A8D253F
:105030001DFBC8A96C5210B08A9B90CB0F797210DF
:10504000CA6E1C07B11BD72728A5CBD1CC89323714
:10505000030A426D15B4EBEEF2CE8102AF37EAF1EE
:1050600005A98CCAF0B18222881F67ED060526AE1D
:105070000206BE702D367DD08488D0A01E46A128A1
:10508000E685941063064C2299CDC02A520AA30DDE
:10509000237FA89D1EA40B3C52DB62AF67BCED0BC7
:1050A0009DB324D12D3ACB4D3A57922C6684DDDE48
:1050B000ED47E02D268BAAFAC48A048BE426A96A60
:1050C00027C9930FABCA27CF7310EF88FAB66628AB
:1050D0003503FB84F20AAC201048A1B78042E2F00D
:1050E000F3E1E64A71548D14EAF11201D412A112CF
:1050F0001912677124CC2A4F31144131E40A65E456
:105100004A8E6F26A720108B150D82E55CF174285E
:10511000A521420937CF12763CB4CD72F1CDFF7094
:10512000C7B35CA2257CF177E86CB48887004DABEF
:1051300003367228548B1995714667AB46A191EAE4
:10514000CAC2EACE2247C902B50473282C103CEF2C
:10515000307E1E530FF90DDF8CB44837B01C25F399
:105160002E8C2BD32A3090A44910A4690FAEEBD516
:1051700096E3BBE449D5B874345DD01E4D939EE8E8
:10518000E9366890357170BD2E08206133BE46A89F
:10519000204B8861CE833C54A8BF304F372192F317
:1051A00022D26380130A474FDA8833888648A8C81A
:1051B000002409F5230D5539BDF08968AFC308F007
:1051C000F61CB50C211525CB7015542CF82C958C9C
:1051D00074449CFCE86DB62A9BCAF35327033DE94F
:1051E000083D054EABB8666BBE04AA82F27CE8624D
:1051F0000FC44F151074290BC9133EC113FC53D5AE
:10520000C42F57F3843FA79234C7D4AF3A2EFD265C
:10521000C99206EB35F5E6FDC272B11AEB93FF2A8F
:10522000A5FE3A94E64EE994F46FB3E06C7660AE76
:1052300026FCCF54007045E7B251ED522DFA8C4355
:105240008A515CF99219A5EEA72E400774C02F7100
:105250000B47A7CE0B7E34B80ACE3087140F2B6DC8
:10526000D2768CA6FA2D4921F3274B75AA26D32690
:105270003FF0B96AF20EE92210AE1435E7910579D4
:10528000A34B1D96EFEC254C4F7337D04BD66CB02B
:105290001FD96B076513847C30BF6AF30709CA08FE
:1052A0002382432DA2A196B00997ED09170411742A
:1052B000801520AF4F0B840A4D2F3001A50B3CC049
:1052C000F5B80D519B530CC1308A7400112E60410A
:1052D000588A0C25953AD1B03A636407D8F0C5DEF8
:1052E00010A9E26D0EA76B53E7270FF78D498E14B7
:1052F00054C9B30FC5B18EA46F3DD9283224335B96
:10530000DACE9A222310AE600FF620100281FC54F0
:105310002156B0EC139BF26F70E43FF7EE12FF736F
:10532000E46D498157F14AA854AF6F8315143D4E7F
:10533000AD024B288A354DF805E5C0F2CBC6522C9C
:1053400041E9B146D62CEDEF16A315E74E22775072
:10535000A20C1001E6CA205634F7E780F126E4F2E9
:10536000CE904E2D540108F692469DF17481E910BD
:10537000BA0003786B5DD93557A4714777D4477F5E
:1053800054B8366348A14F499394F9AACA31AFB6CD
:105390005FDDE76C9CB449BFEE1CE1E24905610F9B
:1053A0000441EEF2B136FA2EEF461338B8344FC44A
:1053B0004B4CAB414CF5A56205CF4C31B683DE2B8F
:1053C00020E76B7CDFD436272FB22084152CEBF23C
:1053D0001021F31EB2F3022C65F9833758A2410C59
:1053E0008B6583D34F7FE8E83C31C29E212F0F3578
:1053F00039457239396C9980B60C9C01684FF2249A
:105400005512F790D6DCD2028D844F2665725E5716
:10541000D51B3B355471126B399831D5F3C7FFBE9C
:10542000C46BBDC4B8D6766DEBD32ADBF684653584
:10543000FC3CA1143CC134A2F24EE64A2A5F10FDA6
:10544000F2E5E360462B8975CBBA2B2027D4514E69
:105450002EFE183743CB12CD2642798C9894F2CF8A
:10546000CDF60F2562E510CAC04757810C70625B0C
:1054700067A25B5DE5D0D64215EA325165D45C196E
:105480007007C2C70BD0E291562B7683C55D318081
:1054900058E23528A0499A8C0BFABE115FC39127B8
:1054A000E58877ABE5F922133290EF5F050EE1E274
:1054B000981502A1B77C03104A21C95410341D5617
:1054C000341759081BF657B597822CD67B29B98318
:1054D0006ECD386473D7CCD7636F53D880421586AE
:1054E000ADD8ECD4647B13657F5326AEB01A5AC294
:1054F000141F648574680AFDF46785B54D74E06611
:1055000005D88B7776DB7A96F6D2821406B50C68CE
:10551000C466552AF78CB698A7F39885280EFFD74E
:105520009082B913FBFCE88E2A0D49B5B68375F25B
:105530006AFDD08F7F4C6C31384B04E37FC8363224
:105540005801314BE19003298C9A52AD4C0E863DA7
:10555000619D550D1990A13F05D469F4D6120954E7
:10556000E1FAD6137158411354E43027080B0B713C
:10557000AF83200C6BE5C412755047439B95642B99
:105580002216EF17530E4272D592729BD87273692E
:105590001554822DE88F0C844E966882B78CA574C2
:1055A0005537755137D0C0F865C8185E9B611576C0
:1055B000C05D7585A55D3A47691746D8B88D015914
:1055C00077A74478AD795F8357A7F1B803A7E503C0
:1055D00001839CECE8A60DC39B73F72FAC40280514
:1055E000A114A0E18413D9361A767A9F617AABB7F9
:1055F00086B53735AEBA4CBFD77BD5143910662087
:10560000C99784C41A4E5128F25CB64FE84F90CD2A
:105610002321DF374F7B13F464392858A165FF2518
:10562000E42A57A10B2CEA64C8E0109E41C5EEF9AC
:105630004100186703B85071599787F902AE5315A6
:105640009C62747DF9511DB581A39398430C2D1A6A
:10565000E4525F125367F299B7598EEF9827A91950
:105660005477DADFB279FAFA5884BDA62E9A84A666
:1056700004619077A94D9EC669D4E4AE5AD856C746
:105680008F1474F5297DD5AAC7AB4CF5A5AFB070C2
:105690002DB65260A6C3B0A2632034C93492B5744B
:1056A0003E89882DC575AE702DB04C16D3525AF573
:1056B0008F2D59896683A27DEF722D0AE21030D4B6
:1056C0009906955C9F48A46D74D066DA194E5A28E5
:1056D000FA0C8DC5E2A59FE2BC6FF7A881BAA73D81
:1056E000B59A756C32EC98BE7D4C6DAC8453F73B2B
:1056F000E040301DE9824AAEA0151AA214AC63AA9C
:10570000878156BDF4611D1C4CA93792CB6B1FD508
:105710008B5F2AB99211853A008A63138693FF4101
:10572000F6638D70D864C1DAE6CA345801D9249280
:10573000C09C50261081351E694104B735629C1407
:105740003D0A586BD69609DB23BD7097C34D085EA2
:10575000F4DD06F53A9BE17FA7886889F9981F5820
:105760003AD3220E7B84C9E1F069E7ED02D366B932
:105770007A17BF37F8B3B356A7BB369B43D86B9D98
:10578000F93DC3D3C069B5494CA1566B759DCFBCDB
:105790001ED999B62B4E40DBDC57F12A6F0FB46F40
:1057A000F3F96D418E70F1FC410F5793F8BCCC02B8
:1057B000FACF3D698823C571695153DEF6B73FB40E
:1057C000E632AB72273A0257218ADB782DC2F58B7D
:1057D000C9BBD243FA2AD26228D23B0BD91BA6BF3F
:1057E000471AE135D2E1F89AE658BF735A9AB736AC
:1057F000BF71DAA7F3307F487D7E326D5CA2203E18
:10580000471D304CC1138401134C21115AA114546B
:105810006DC117FCC11D7CEF7C35064333D6FFCE2E
:10582000AB7BFBB1F0F409205763C3C19AF1C6BA50
:10583000C33F96212766B8251142920D4FE3F7F337
:10584000FA23113C31282422DC6D384EF09923B321
:1058500092145A4BB005BBB0370CDC72A9719C8214
:10586000661B67501758C4243BC95B642325182660
:10587000FD9D6A9EF9DEEA7BF99A0FCB3B38AB4679
:10588000DB6C42789B51755C04AE2E783DCD4B614C
:105890008E4CC185D7F9E22FDE856FB5856D1B1360
:1058A0003BDE573931CADA847BAD2C87D9A292DE30
:1058B0008481E0EBB81F447492D5150BE2199A75F8
:1058C000754669BBB3102D27F7E69A18CEB6FB7460
:1058D000225D2DBC605CBDD0D2694BD04657D33120
:1058E000E0C7272C2C3A1D2B70748D57C141685A84
:1058F00079A97CD53B3BB5E7E81A087E5F59C1D44E
:105900001F5331099C4AB7C41CC14928F3E20A68F5
:105910002AED8326684A611830E113749D49FF68B7
:105920000A1AEA31D8EB51191A9CAAA9F2EFF085AC
:105930004C55F36259C39199DD1F13EF600C5F93CF
:1059400019A2738EE8C3074AF22AE26528F11048CB
:105950001965557CA236971A84D5C53D8A72B08CDC
:10596000F37FDBA380F6964592399D93F7582CC8B8
:10597000A5BEAF9D419891FC685DDF98632408CE79
:10598000A447B6F3DF8F2A3C3178314EE18EA7B9B8
:105990008E0DBE3C835731855FB4C5938FDBD3EC4E
:1059A0003183059AA45792A215E0FECC277E8E8CF7
:1059B000221A4C41D5D6D9E2C799CD3D3E4079C394
:1059C0006E81E36EDB24FDD24A9FFF6A962987B081
:1059D000F65C4263DECF5DBE202CD474DCD66D371E
:1059E00014722D4279A23B8113DDE6167DA241C5DA
:1059F000E67F5E2D006255870B0407162478C16090
:105A000042840A1B327C58B08BB389149D79B970DB
:105A1000A8E244553B3020FCF8D123C80B22FF41BB
:105A2000963C8910830E8D2C5BBAA4784550CC9996
:105A30008204B5B289F3A6CE9C395BEDD4E993A775
:105A40004FA040B10D252A34E84FA14C973A6D0A7A
:105A5000B5E6539932AFB0B08A95058B005AB7DAE4
:105A60008C660A6CB456469561F2846918265664B1
:105A7000C9D28AF6299927B974E7DAAD9B8C145DEF
:105A8000BD7A9D55E3FB8C54E0C1A4AAA9AAE6F710
:105A90007062C483553D737C38B2E1C98A272F9662
:105AA0008C79F22ACB9AADAD8AB54A56E8D08744B4
:105AB000CB2A5DDAF16667CF48B33AF49A15A2D3E0
:105AC000B1612362D5859563D67E793F0B94884C6E
:105AD000222FC18717272E1CB971E25ECA346FAE20
